:02000000B52920
:10000800FF00030E8301D9000A08D8008A0170088E
:10001800A0008B1C16288B102108023A031D1528F6
:10002800A101A10A2008F00058088A00590E83008F
:06003800FF0E7F0E09001F
:0E003E008312031355088A005408820008003C
:10004C001F208A110A128000840AD40A0319D50AC7
:08005C00F003031D2628080033
:10006400831203138801D601D70180305706F000AC
:1000740080307002031D4028033056020318722892
:100084002108013A031D4728C62888155608F000A0
:100094005708F100F00DF10D70107008223E840035
:1000A400000887000813081B592808105A28081448
:1000B4000816081A5F288810602888140B30FB0083
:1000C4002630FC005D30FD00FD0B6628FC0B662825
:1000D400FB0B662800000000D60A0319D70A37284C
:1000E40088118810081586187D282108013A031DF7
:1000F4007C28C6287528D601D70180305706F00021
:1001040080307002031D8828033056020318BA2871
:100114002108013A031D8F28C62888175608F000C5
:100124005708F100F00DF10D70107008223E8400A4
:100134000008870008110819A1280812A228081627
:1001440008140818A7288812A82888160B30FB0062
:100154002630FC005D30FD00FD0BAE28FC0BAE2804
:10016400FB0BAE2800000000D60A0319D70A7F282B
:100174008813881208178618C5282108013A031D18
:0A018400C428C628BD28352808004D
:10018E008312031388018817881BCF288811D02863
:10019E008815D601D70180305706F00080307002E6
:1001AE00031DDB2814305602031806292108023AD3
:1001BE00031DE228B4295608F0005708F100F00D8F
:1001CE00F10D70107008223E840000088700081799
:1001DE00081BF3280810F42808140B30FB002630F7
:1001EE00FC005D30FD00FD0BFA28FC0BFA28FB0B22
:1001FE00FA2800000000D60A0319D70AD228870170
:10020E000130D6000030D70080305706F000803025
:10021E007002031D14290430560203183B292108CD
:10022E00023A031D1B29B429081088140B30FB0059
:10023E002630FC005D30FD00FD0B2329FC0B23292D
:10024E00FB0B2329000000005608F0005708F100B0
:10025E00F00DF10D70107008223E8400000887002A
:10026E00D60A0319D70A0B298701D601D701803088
:10027E005706F00080307002031D47290C305602DD
:10028E00031878292108023A031D4E29B429881033
:10029E00881853290813542908170816081A5929BB
:1002AE0008115A2908155608F0005708F100F00DEC
:1002BE00F10D70107008223E8400000887000B308C
:1002CE00FB002630FC005D30FD00FD0B6C29FC0BA5
:1002DE006C29FB0B6C2900000000D60A0319D70A03
:1002EE003E298701881608120130D6000030D7004B
:1002FE0080305706F00080307002031D88290430CC
:10030E0056020318AD292108023A031D8F29B4297C
:10031E000B30FB002630FC005D30FD00FD0B9529F7
:10032E00FC0B9529FB0B9529000000005608F000E8
:10033E005708F100F00DF10D70107008223E840088
:10034E0000088700D60A0319D70A7F290811081951
:0C035E00B2298812B3298816D0280800A4
:10036A0008228B170B1683160313011788018614AC
:10037A008618C1290610C22906148701831288012A
:10038A0087012108023A0319CC29C720CD29322036
:04039A00C629CE2979
:1004100021308400333083120313F000D430D40031
:080420000130D5002620080080
:0203A80001341E
:1003AA00003400340134003402340034033400349D
:1003BA00043400340534003406340034073400347D
:1003CA000834003409340034103400341134003451
:1003DA001234003413340034143400341534003425
:1003EA001634003417340034183400341934003405
:1003FA0020340034213400342234003400340034F0
:04040A000034003486
:02400E004A2F37
:00000001FF
