:020000006E2967
:10000800FF00030E8301A4000A08A5008A017008F6
:10001800A0008B1C17288B102108633A031D162893
:10002800FF30A100A10A2008F00025088A00240E4C
:080038008300FF0E7F0E09009A
:0E0040008312031323088A002208820008009E
:10004E0020208A110A128000840AA20A0319A30A28
:08005E00F003031D2728080030
:100066008D3083120313A2000130A30026308400D2
:100076003030F0002720831686148312061186116D
:100086000230A6000030A70080302706F00080303E
:100096007002031D502800302602031C7C28013004
:1000A6002105F1007108013A031D5A28D228861548
:1000B6002608F0002708F100F00DF10D7010700809
:1000C600283E840000088800113087000B30FB00B2
:1000D6002630FC005D30FD00FD0B6F28FC0B6F2801
:1000E600FB0B6F28000000000130A602031CA703CB
:1000F600472886112130870086188A280130210575
:10010600F1007108013A031D8928D2287F280230A0
:10011600A6000030A70080302706F000803070026D
:10012600031D972800302602031CC3280130210531
:10013600F1007108013A031DA128D22806152608E8
:10014600F0002708F100F00DF10D70107008283E40
:100156008400000888000A3087000B30FB00263038
:10016600FC005D30FD00FD0BB628FC0BB628FB0B32
:10017600B628000000000130A602031CA7038E2843
:1001860006110C3087008618D12801302105F100B0
:100196007108013A031DD028D228C6284328080032
:1001A600BD3083120313A2000130A3002630840061
:1001B6003030F0002720061586150E30A6000030D8
:1001C600A70080302706F00080307002031DED285E
:1001D60000302602031C262901302105F100710892
:1001E600003A031DF7286D292608F0002708F100BC
:1001F600F00DF10D70107008283E8400000888008C
:100206008030F000803027067002031D0C29260876
:100216000B3C031811291130870013292130870060
:100226000B30FB002630FC005D30FD00FD0B19296C
:10023600FC0B1929FB0B1929000000000130A6024E
:10024600031CA703E4281630A6000030A700803060
:100256002706F00080307002031D33290030260285
:10026600031C6C2901302105F1007108003A031DB9
:100276003D296D292608F0002708F100F00DF10D43
:1002860070107008283E8400000888008030F00056
:10029600803027067002031D52292608133C0318D6
:1002A60057290A30870059290C3087000B30FB008C
:1002B6002630FC005D30FD00FD0B5F29FC0B5F293D
:1002C600FB0B5F29000000000130A602031CA703F8
:0602D6002A29E0280800BF
:1002DC0083120313A101831606148B170B16011737
:1002EC008701831287018316880183128801831684
:1002FC0006118611013083122105F1007108003AB4
:0E030C00031D8A2933208B29D32080298C29B8
:04031A000034003477
:10031E000034003401340034023400340334003429
:10032E000434003405340034063400340734003409
:10033E0008340034093400341034003411340034DD
:10034E0012340034133400341434003415340034B1
:10035E001634003417340034183400341934003491
:0C036E00203400342134003422340034E8
:04037A000034003417
:10037E0000340034013400340234003403340034C9
:10038E0004340034053400340634003407340034A9
:10039E00083400340934003410340034113400347D
:1003AE001234003413340034143400341534003451
:1003BE001634003417340034183400341934003431
:0C03CE0020340034213400342234003488
:02400E004A2F37
:00000001FF
